{
  "_format": "hh-sol-artifact-1",
  "contractName": "EscrowManager",
  "sourceName": "blockchain/contracts/EscrowManager.sol",
  "abi": [
    {
      "inputs": [],
      "stateMutability": "nonpayable",
      "type": "constructor"
    },
    {
      "anonymous": false,
      "inputs": [
        {
          "indexed": true,
          "internalType": "string",
          "name": "contractId",
          "type": "string"
        },
        {
          "indexed": true,
          "internalType": "address",
          "name": "buyer",
          "type": "address"
        },
        {
          "indexed": true,
          "internalType": "address",
          "name": "seller",
          "type": "address"
        },
        {
          "indexed": false,
          "internalType": "uint256",
          "name": "endDate",
          "type": "uint256"
        }
      ],
      "name": "ContractCreated",
      "type": "event"
    },
    {
      "anonymous": false,
      "inputs": [
        {
          "indexed": true,
          "internalType": "string",
          "name": "contractId",
          "type": "string"
        },
        {
          "indexed": false,
          "internalType": "enum EscrowManager.State",
          "name": "previousState",
          "type": "uint8"
        },
        {
          "indexed": false,
          "internalType": "enum EscrowManager.State",
          "name": "newState",
          "type": "uint8"
        },
        {
          "indexed": false,
          "internalType": "uint256",
          "name": "timestamp",
          "type": "uint256"
        }
      ],
      "name": "ContractStateChanged",
      "type": "event"
    },
    {
      "anonymous": false,
      "inputs": [
        {
          "indexed": true,
          "internalType": "string",
          "name": "contractId",
          "type": "string"
        },
        {
          "indexed": true,
          "internalType": "address",
          "name": "buyer",
          "type": "address"
        },
        {
          "indexed": false,
          "internalType": "uint256",
          "name": "amount",
          "type": "uint256"
        },
        {
          "indexed": false,
          "internalType": "uint256",
          "name": "timestamp",
          "type": "uint256"
        }
      ],
      "name": "FundsDeposited",
      "type": "event"
    },
    {
      "anonymous": false,
      "inputs": [
        {
          "indexed": true,
          "internalType": "string",
          "name": "contractId",
          "type": "string"
        },
        {
          "indexed": true,
          "internalType": "address",
          "name": "admin",
          "type": "address"
        },
        {
          "indexed": false,
          "internalType": "uint256",
          "name": "amount",
          "type": "uint256"
        },
        {
          "indexed": false,
          "internalType": "uint256",
          "name": "timestamp",
          "type": "uint256"
        }
      ],
      "name": "FundsRefundedToBuyer",
      "type": "event"
    },
    {
      "anonymous": false,
      "inputs": [
        {
          "indexed": true,
          "internalType": "string",
          "name": "contractId",
          "type": "string"
        },
        {
          "indexed": true,
          "internalType": "address",
          "name": "admin",
          "type": "address"
        },
        {
          "indexed": true,
          "internalType": "address",
          "name": "recipient",
          "type": "address"
        },
        {
          "indexed": false,
          "internalType": "uint256",
          "name": "amount",
          "type": "uint256"
        },
        {
          "indexed": false,
          "internalType": "uint256",
          "name": "timestamp",
          "type": "uint256"
        }
      ],
      "name": "FundsReleasedByAdmin",
      "type": "event"
    },
    {
      "anonymous": false,
      "inputs": [
        {
          "indexed": true,
          "internalType": "string",
          "name": "contractId",
          "type": "string"
        },
        {
          "indexed": true,
          "internalType": "address",
          "name": "buyer",
          "type": "address"
        },
        {
          "indexed": false,
          "internalType": "uint256",
          "name": "amount",
          "type": "uint256"
        },
        {
          "indexed": false,
          "internalType": "uint256",
          "name": "timestamp",
          "type": "uint256"
        }
      ],
      "name": "FundsReleasedToSeller",
      "type": "event"
    },
    {
      "inputs": [],
      "name": "administrator",
      "outputs": [
        {
          "internalType": "address",
          "name": "",
          "type": "address"
        }
      ],
      "stateMutability": "view",
      "type": "function"
    },
    {
      "inputs": [
        {
          "internalType": "string",
          "name": "",
          "type": "string"
        }
      ],
      "name": "contracts",
      "outputs": [
        {
          "internalType": "address",
          "name": "buyer",
          "type": "address"
        },
        {
          "internalType": "address payable",
          "name": "seller",
          "type": "address"
        },
        {
          "internalType": "uint256",
          "name": "contractAmount",
          "type": "uint256"
        },
        {
          "internalType": "uint256",
          "name": "startDate",
          "type": "uint256"
        },
        {
          "internalType": "uint256",
          "name": "endDate",
          "type": "uint256"
        },
        {
          "internalType": "string",
          "name": "contractDescription",
          "type": "string"
        },
        {
          "internalType": "enum EscrowManager.State",
          "name": "currentState",
          "type": "uint8"
        },
        {
          "internalType": "bool",
          "name": "exists",
          "type": "bool"
        }
      ],
      "stateMutability": "view",
      "type": "function"
    },
    {
      "inputs": [
        {
          "internalType": "string",
          "name": "contractId",
          "type": "string"
        },
        {
          "internalType": "address",
          "name": "_buyer",
          "type": "address"
        },
        {
          "internalType": "address payable",
          "name": "_seller",
          "type": "address"
        },
        {
          "internalType": "uint256",
          "name": "_endDate",
          "type": "uint256"
        },
        {
          "internalType": "string",
          "name": "_description",
          "type": "string"
        }
      ],
      "name": "createEscrow",
      "outputs": [],
      "stateMutability": "nonpayable",
      "type": "function"
    },
    {
      "inputs": [
        {
          "internalType": "string",
          "name": "contractId",
          "type": "string"
        }
      ],
      "name": "deposit",
      "outputs": [],
      "stateMutability": "payable",
      "type": "function"
    },
    {
      "inputs": [
        {
          "internalType": "string",
          "name": "contractId",
          "type": "string"
        }
      ],
      "name": "doesContractExist",
      "outputs": [
        {
          "internalType": "bool",
          "name": "",
          "type": "bool"
        }
      ],
      "stateMutability": "view",
      "type": "function"
    },
    {
      "inputs": [
        {
          "internalType": "string",
          "name": "contractId",
          "type": "string"
        }
      ],
      "name": "getBalance",
      "outputs": [
        {
          "internalType": "uint256",
          "name": "",
          "type": "uint256"
        }
      ],
      "stateMutability": "view",
      "type": "function"
    },
    {
      "inputs": [
        {
          "internalType": "string",
          "name": "contractId",
          "type": "string"
        }
      ],
      "name": "getContractInfo",
      "outputs": [
        {
          "internalType": "address",
          "name": "_buyer",
          "type": "address"
        },
        {
          "internalType": "address",
          "name": "_seller",
          "type": "address"
        },
        {
          "internalType": "address",
          "name": "_administrator",
          "type": "address"
        },
        {
          "internalType": "uint256",
          "name": "_contractAmount",
          "type": "uint256"
        },
        {
          "internalType": "uint256",
          "name": "_startDate",
          "type": "uint256"
        },
        {
          "internalType": "uint256",
          "name": "_endDate",
          "type": "uint256"
        },
        {
          "internalType": "string",
          "name": "_description",
          "type": "string"
        },
        {
          "internalType": "enum EscrowManager.State",
          "name": "_currentState",
          "type": "uint8"
        },
        {
          "internalType": "bool",
          "name": "_isExpired",
          "type": "bool"
        }
      ],
      "stateMutability": "view",
      "type": "function"
    },
    {
      "inputs": [
        {
          "internalType": "string",
          "name": "contractId",
          "type": "string"
        }
      ],
      "name": "getRemainingTime",
      "outputs": [
        {
          "internalType": "uint256",
          "name": "",
          "type": "uint256"
        }
      ],
      "stateMutability": "view",
      "type": "function"
    },
    {
      "inputs": [
        {
          "internalType": "string",
          "name": "contractId",
          "type": "string"
        }
      ],
      "name": "isContractExpired",
      "outputs": [
        {
          "internalType": "bool",
          "name": "",
          "type": "bool"
        }
      ],
      "stateMutability": "view",
      "type": "function"
    },
    {
      "inputs": [
        {
          "internalType": "string",
          "name": "contractId",
          "type": "string"
        }
      ],
      "name": "refundToBuyer",
      "outputs": [],
      "stateMutability": "nonpayable",
      "type": "function"
    },
    {
      "inputs": [
        {
          "internalType": "string",
          "name": "contractId",
          "type": "string"
        }
      ],
      "name": "releaseFunds",
      "outputs": [],
      "stateMutability": "nonpayable",
      "type": "function"
    },
    {
      "inputs": [
        {
          "internalType": "string",
          "name": "contractId",
          "type": "string"
        }
      ],
      "name": "releaseToSeller",
      "outputs": [],
      "stateMutability": "nonpayable",
      "type": "function"
    },
    {
      "inputs": [
        {
          "internalType": "string",
          "name": "contractId",
          "type": "string"
        },
        {
          "internalType": "bool",
          "name": "favorBuyer",
          "type": "bool"
        }
      ],
      "name": "resolveDispute",
      "outputs": [],
      "stateMutability": "nonpayable",
      "type": "function"
    },
    {
      "inputs": [
        {
          "internalType": "string",
          "name": "contractId",
          "type": "string"
        }
      ],
      "name": "setDisputed",
      "outputs": [],
      "stateMutability": "nonpayable",
      "type": "function"
    }
  ],
  "bytecode": "0x608060405234801561001057600080fd5b50600080546001600160a01b03191633179055611f79806100326000396000f3fe6080604052600436106100dd5760003560e01c80638c5b83851161007f578063c3abd8b311610059578063c3abd8b314610263578063ce42262614610283578063d6aa54df146102a3578063f53d0a8e146102c357600080fd5b80638c5b8385146101fc5780639d35722014610230578063a26e11861461025057600080fd5b80633a51d246116100bb5780633a51d246146101595780634304479e146101875780636ab6f6fe146101a7578063819f34b3146101c757600080fd5b80630df205f0146100e25780631b2a26ca146101175780633861628714610139575b600080fd5b3480156100ee57600080fd5b506101026100fd3660046119b6565b6102fb565b60405190151581526020015b60405180910390f35b34801561012357600080fd5b506101376101323660046119b6565b61032f565b005b34801561014557600080fd5b506101026101543660046119b6565b6105a7565b34801561016557600080fd5b506101796101743660046119b6565b61061f565b60405190815260200161010e565b34801561019357600080fd5b506101376101a2366004611a0b565b610694565b3480156101b357600080fd5b506101376101c23660046119b6565b6109cd565b3480156101d357600080fd5b506101e76101e23660046119b6565b610b22565b60405161010e99989796959493929190611b2a565b34801561020857600080fd5b5061021c6102173660046119b6565b610d26565b60405161010e989796959493929190611b9b565b34801561023c57600080fd5b5061017961024b3660046119b6565b610e14565b61013761025e3660046119b6565b610ec4565b34801561026f57600080fd5b5061013761027e3660046119b6565b611114565b34801561028f57600080fd5b5061013761029e366004611c02565b611359565b3480156102af57600080fd5b506101376102be3660046119b6565b6116b2565b3480156102cf57600080fd5b506000546102e3906001600160a01b031681565b6040516001600160a01b03909116815260200161010e565b600060018260405161030d9190611c59565b9081526040519081900360200190206006015460ff6101009091041692915050565b6000546001600160a01b031633146103625760405162461bcd60e51b815260040161035990611c75565b60405180910390fd5b806001816040516103739190611c59565b9081526040519081900360200190206006015460ff610100909104166103ab5760405162461bcd60e51b815260040161035990611cc6565b816001806001836040516103bf9190611c59565b9081526040519081900360200190206006015460ff1660038111156103e6576103e6611af2565b146104035760405162461bcd60e51b815260040161035990611cf5565b60006001856040516104159190611c59565b9081526020016040518091039020600201549050600081116104795760405162461bcd60e51b815260206004820152601d60248201527f4e6f2068617920666f6e646f732070617261207265656d626f6c7361720000006044820152606401610359565b600260018660405161048b9190611c59565b908152604051908190036020019020600601805460ff191660018360038111156104b7576104b7611af2565b02179055506001856040516104cc9190611c59565b908152604051908190036020018120546001600160a01b03169082156108fc029083906000818181858888f1935050505015801561050e573d6000803e3d6000fd5b50604051339061051f908790611c59565b60408051918290038220848352426020840152917fb367fae55f35b8619cf335ee54496ea2e592cefbed1018216b5f5377e9cd272591015b60405180910390a38460405161056d9190611c59565b6040518091039020600080516020611f24833981519152600160024260405161059893929190611d45565b60405180910390a25050505050565b6000816001816040516105ba9190611c59565b9081526040519081900360200190206006015460ff610100909104166105f25760405162461bcd60e51b815260040161035990611cc6565b6001836040516106029190611c59565b908152602001604051809103902060040154421191505b50919050565b6000816001816040516106329190611c59565b9081526040519081900360200190206006015460ff6101009091041661066a5760405162461bcd60e51b815260040161035990611cc6565b60018360405161067a9190611c59565b908152602001604051809103902060020154915050919050565b6000546001600160a01b031633146106be5760405162461bcd60e51b815260040161035990611c75565b6001856040516106ce9190611c59565b9081526040519081900360200190206006015460ff610100909104161561072f5760405162461bcd60e51b8152602060048201526015602482015274456c20636f6e747261746f2079612065786973746560581b6044820152606401610359565b6001600160a01b0384166107855760405162461bcd60e51b815260206004820152601860248201527f446972656363696f6e20627579657220696e76616c69646100000000000000006044820152606401610359565b6001600160a01b0383166107db5760405162461bcd60e51b815260206004820152601960248201527f446972656363696f6e2073656c6c657220696e76616c696461000000000000006044820152606401610359565b42821161083b5760405162461bcd60e51b815260206004820152602860248201527f4c612066656368612064652066696e616c697a6163696f6e2064656265207365604482015267722066757475726160c01b6064820152608401610359565b604051806101000160405280856001600160a01b03168152602001846001600160a01b0316815260200160008152602001600081526020018381526020018281526020016000600381111561089257610892611af2565b8152600160209091018190526040516108ac908890611c59565b9081526040805160209281900383019020835181546001600160a01b03199081166001600160a01b03928316178355938501516001830180549095169116179092558201516002820155606082015160038201556080820151600482015560a0820151600582019061091e9082611df3565b5060c082015160068201805460ff1916600183600381111561094257610942611af2565b021790555060e08201518160060160016101000a81548160ff021916908315150217905550905050826001600160a01b0316846001600160a01b03168660405161098c9190611c59565b604051908190038120858252907fc49b1e33430b28473b5134a8ca461b5d56386c4c7a48aa5cc7c618113ca735899060200160405180910390a45050505050565b6000546001600160a01b031633146109f75760405162461bcd60e51b815260040161035990611c75565b80600181604051610a089190611c59565b9081526040519081900360200190206006015460ff61010090910416610a405760405162461bcd60e51b815260040161035990611cc6565b81600180600183604051610a549190611c59565b9081526040519081900360200190206006015460ff166003811115610a7b57610a7b611af2565b14610a985760405162461bcd60e51b815260040161035990611cf5565b6003600185604051610aaa9190611c59565b908152604051908190036020019020600601805460ff19166001836003811115610ad657610ad6611af2565b021790555083604051610ae99190611c59565b6040518091039020600080516020611f248339815191526001600342604051610b1493929190611d45565b60405180910390a250505050565b600080600080600080606060008089600181604051610b419190611c59565b9081526040519081900360200190206006015460ff61010090910416610b795760405162461bcd60e51b815260040161035990611cc6565b600060018c604051610b8b9190611c59565b9081526040805191829003602090810183206101008401835280546001600160a01b03908116855260018201541691840191909152600281015491830191909152600381015460608301526004810154608083015260058101805460a084019190610bf590611d6e565b80601f0160208091040260200160405190810160405280929190818152602001828054610c2190611d6e565b8015610c6e5780601f10610c4357610100808354040283529160200191610c6e565b820191906000526020600020905b815481529060010190602001808311610c5157829003601f168201915b5050509183525050600682015460209091019060ff166003811115610c9557610c95611af2565b6003811115610ca657610ca6611af2565b81526020016006820160019054906101000a900460ff16151515158152505090508060000151816020015160008054906101000a90046001600160a01b03168360400151846060015185608001518660a001518760c00151886080015142119a509a509a509a509a509a509a509a509a5050509193959799909294969850565b8051602081830181018051600180835293830192909401919091209290528154908201546002830154600384015460048501546005860180546001600160a01b03968716979690951695939492939192610d7f90611d6e565b80601f0160208091040260200160405190810160405280929190818152602001828054610dab90611d6e565b8015610df85780601f10610dcd57610100808354040283529160200191610df8565b820191906000526020600020905b815481529060010190602001808311610ddb57829003601f168201915b5050506006909301549192505060ff8082169161010090041688565b600081600181604051610e279190611c59565b9081526040519081900360200190206006015460ff61010090910416610e5f5760405162461bcd60e51b815260040161035990611cc6565b600183604051610e6f9190611c59565b9081526020016040518091039020600401544210610e905760009150610619565b42600184604051610ea19190611c59565b908152602001604051809103902060040154610ebd9190611eb3565b9392505050565b80600181604051610ed59190611c59565b9081526040519081900360200190206006015460ff61010090910416610f0d5760405162461bcd60e51b815260040161035990611cc6565b600181604051610f1d9190611c59565b90815260405190819003602001902054336001600160a01b0390911614610f565760405162461bcd60e51b815260040161035990611eda565b81600080600183604051610f6a9190611c59565b9081526040519081900360200190206006015460ff166003811115610f9157610f91611af2565b14610fae5760405162461bcd60e51b815260040161035990611cf5565b60003411610ffe5760405162461bcd60e51b815260206004820152601b60248201527f456c206d6f6e746f206465626520736572206d61796f722061203000000000006044820152606401610359565b3460018560405161100f9190611c59565b908152602001604051809103902060020181905550426001856040516110359190611c59565b9081526020016040518091039020600301819055506001808560405161105b9190611c59565b908152604051908190036020019020600601805460ff1916600183600381111561108757611087611af2565b0217905550604051339061109c908690611c59565b60408051918290038220348352426020840152917fdf891f5410135263075ea37fdff545d69408e487f2cac5ef532f801aecfaf19e910160405180910390a3836040516110e99190611c59565b6040518091039020600080516020611f248339815191526000600142604051610b1493929190611d45565b806001816040516111259190611c59565b9081526040519081900360200190206006015460ff6101009091041661115d5760405162461bcd60e51b815260040161035990611cc6565b60018160405161116d9190611c59565b90815260405190819003602001902054336001600160a01b03909116146111a65760405162461bcd60e51b815260040161035990611eda565b816001806001836040516111ba9190611c59565b9081526040519081900360200190206006015460ff1660038111156111e1576111e1611af2565b146111fe5760405162461bcd60e51b815260040161035990611cf5565b60006001856040516112109190611c59565b9081526020016040518091039020600201549050600081116112745760405162461bcd60e51b815260206004820152601a60248201527f4e6f2068617920666f6e646f732070617261206c6962657261720000000000006044820152606401610359565b60026001866040516112869190611c59565b908152604051908190036020019020600601805460ff191660018360038111156112b2576112b2611af2565b02179055506001856040516112c79190611c59565b908152604051908190036020018120600101546001600160a01b03169082156108fc029083906000818181858888f1935050505015801561130c573d6000803e3d6000fd5b50604051339061131d908790611c59565b60408051918290038220848352426020840152917fa7e1b705062792f3545da9c94c0fe07e82fc254b5d32722642263a18584882a89101610557565b6000546001600160a01b031633146113835760405162461bcd60e51b815260040161035990611c75565b816001816040516113949190611c59565b9081526040519081900360200190206006015460ff610100909104166113cc5760405162461bcd60e51b815260040161035990611cc6565b826003806001836040516113e09190611c59565b9081526040519081900360200190206006015460ff16600381111561140757611407611af2565b146114245760405162461bcd60e51b815260040161035990611cf5565b60006001866040516114369190611c59565b9081526020016040518091039020600201549050600081116114a95760405162461bcd60e51b815260206004820152602660248201527f4e6f2068617920666f6e646f732070617261207265736f6c766572206c61206460448201526569737075746160d01b6064820152608401610359565b60026001876040516114bb9190611c59565b908152604051908190036020019020600601805460ff191660018360038111156114e7576114e7611af2565b02179055508415611599576001866040516115029190611c59565b908152604051908190036020018120546001600160a01b03169082156108fc029083906000818181858888f19350505050158015611544573d6000803e3d6000fd5b506040513390611555908890611c59565b60408051918290038220848352426020840152917fb367fae55f35b8619cf335ee54496ea2e592cefbed1018216b5f5377e9cd2725910160405180910390a3611669565b6001866040516115a99190611c59565b908152604051908190036020018120600101546001600160a01b03169082156108fc029083906000818181858888f193505050501580156115ee573d6000803e3d6000fd5b506001866040516115ff9190611c59565b908152604051908190036020018120600101546001600160a01b0316903390611629908990611c59565b60408051918290038220858352426020840152917f85e7e583035e6dde8b85b69a1bc341bd3301e78aadd6bc20627375a651a448b4910160405180910390a45b856040516116779190611c59565b6040518091039020600080516020611f2483398151915260036002426040516116a293929190611d45565b60405180910390a2505050505050565b6000546001600160a01b031633146116dc5760405162461bcd60e51b815260040161035990611c75565b806001816040516116ed9190611c59565b9081526040519081900360200190206006015460ff610100909104166117255760405162461bcd60e51b815260040161035990611cc6565b816001806001836040516117399190611c59565b9081526040519081900360200190206006015460ff16600381111561176057611760611af2565b1461177d5760405162461bcd60e51b815260040161035990611cf5565b600060018560405161178f9190611c59565b9081526020016040518091039020600201549050600081116117f35760405162461bcd60e51b815260206004820152601a60248201527f4e6f2068617920666f6e646f732070617261206c6962657261720000000000006044820152606401610359565b60026001866040516118059190611c59565b908152604051908190036020019020600601805460ff1916600183600381111561183157611831611af2565b02179055506001856040516118469190611c59565b908152604051908190036020018120600101546001600160a01b03169082156108fc029083906000818181858888f1935050505015801561188b573d6000803e3d6000fd5b5060018560405161189c9190611c59565b908152604051908190036020018120600101546001600160a01b03169033906118c6908890611c59565b60408051918290038220858352426020840152917f85e7e583035e6dde8b85b69a1bc341bd3301e78aadd6bc20627375a651a448b4910160405180910390a48460405161056d9190611c59565b634e487b7160e01b600052604160045260246000fd5b600082601f83011261193a57600080fd5b813567ffffffffffffffff8082111561195557611955611913565b604051601f8301601f19908116603f0116810190828211818310171561197d5761197d611913565b8160405283815286602085880101111561199657600080fd5b836020870160208301376000602085830101528094505050505092915050565b6000602082840312156119c857600080fd5b813567ffffffffffffffff8111156119df57600080fd5b6119eb84828501611929565b949350505050565b6001600160a01b0381168114611a0857600080fd5b50565b600080600080600060a08688031215611a2357600080fd5b853567ffffffffffffffff80821115611a3b57600080fd5b611a4789838a01611929565b965060208801359150611a59826119f3565b909450604087013590611a6b826119f3565b9093506060870135925060808701359080821115611a8857600080fd5b50611a9588828901611929565b9150509295509295909350565b60005b83811015611abd578181015183820152602001611aa5565b50506000910152565b60008151808452611ade816020860160208601611aa2565b601f01601f19169290920160200192915050565b634e487b7160e01b600052602160045260246000fd5b60048110611b2657634e487b7160e01b600052602160045260246000fd5b9052565b6001600160a01b038a81168252898116602083015288166040820152606081018790526080810186905260a0810185905261012060c08201819052600090611b7483820187611ac6565b915050611b8460e0830185611b08565b8215156101008301529a9950505050505050505050565b6001600160a01b0389811682528816602082015260408101879052606081018690526080810185905261010060a08201819052600090611bdd83820187611ac6565b915050611bed60c0830185611b08565b82151560e08301529998505050505050505050565b60008060408385031215611c1557600080fd5b823567ffffffffffffffff811115611c2c57600080fd5b611c3885828601611929565b92505060208301358015158114611c4e57600080fd5b809150509250929050565b60008251611c6b818460208701611aa2565b9190910192915050565b60208082526031908201527f536f6c6f20656c2061646d696e6973747261646f7220707565646520656a65636040820152703aba30b91032b9ba3090333ab731b4b7b760791b606082015260800190565b602080825260159082015274456c20636f6e747261746f206e6f2065786973746560581b604082015260600190565b60208082526030908201527f45737461646f2064656c20636f6e747261746f20696e76616c69646f2070617260408201526f309032b9ba309037b832b930b1b4b7b760811b606082015260800190565b60608101611d538286611b08565b611d606020830185611b08565b826040830152949350505050565b600181811c90821680611d8257607f821691505b60208210810361061957634e487b7160e01b600052602260045260246000fd5b601f821115611dee576000816000526020600020601f850160051c81016020861015611dcb5750805b601f850160051c820191505b81811015611dea57828155600101611dd7565b5050505b505050565b815167ffffffffffffffff811115611e0d57611e0d611913565b611e2181611e1b8454611d6e565b84611da2565b602080601f831160018114611e565760008415611e3e5750858301515b600019600386901b1c1916600185901b178555611dea565b600085815260208120601f198616915b82811015611e8557888601518255948401946001909101908401611e66565b5085821015611ea35787850151600019600388901b60f8161c191681555b5050505050600190811b01905550565b81810381811115611ed457634e487b7160e01b600052601160045260246000fd5b92915050565b60208082526029908201527f536f6c6f20656c20627579657220707565646520656a656375746172206573746040820152683090333ab731b4b7b760b91b60608201526080019056fe97c7c1920f4e6b379ca6b118e2a6d2abce92bf36bbcb293cf85d9d91175c7539a26469706673582212201694de3b271b542ed13fcd9c099a9fd50a0e014659e252995eba16b212a1f2b164736f6c63430008180033",
  "linkReferences": {},
  "deployedLinkReferences": {}
}