{
  "_format": "hh-sol-artifact-1",
  "contractName": "EscrowManager",
  "sourceName": "blockchain/contracts/EscrowManager.sol",
  "abi": [
    {
      "inputs": [],
      "stateMutability": "nonpayable",
      "type": "constructor"
    },
    {
      "anonymous": false,
      "inputs": [
        {
          "indexed": true,
          "internalType": "string",
          "name": "contractId",
          "type": "string"
        },
        {
          "indexed": true,
          "internalType": "address",
          "name": "buyer",
          "type": "address"
        },
        {
          "indexed": true,
          "internalType": "address",
          "name": "seller",
          "type": "address"
        },
        {
          "indexed": false,
          "internalType": "uint256",
          "name": "endDate",
          "type": "uint256"
        }
      ],
      "name": "ContractCreated",
      "type": "event"
    },
    {
      "anonymous": false,
      "inputs": [
        {
          "indexed": true,
          "internalType": "string",
          "name": "contractId",
          "type": "string"
        },
        {
          "indexed": false,
          "internalType": "enum EscrowManager.State",
          "name": "previousState",
          "type": "uint8"
        },
        {
          "indexed": false,
          "internalType": "enum EscrowManager.State",
          "name": "newState",
          "type": "uint8"
        },
        {
          "indexed": false,
          "internalType": "uint256",
          "name": "timestamp",
          "type": "uint256"
        }
      ],
      "name": "ContractStateChanged",
      "type": "event"
    },
    {
      "anonymous": false,
      "inputs": [
        {
          "indexed": true,
          "internalType": "string",
          "name": "contractId",
          "type": "string"
        },
        {
          "indexed": true,
          "internalType": "address",
          "name": "buyer",
          "type": "address"
        },
        {
          "indexed": false,
          "internalType": "uint256",
          "name": "amount",
          "type": "uint256"
        },
        {
          "indexed": false,
          "internalType": "uint256",
          "name": "timestamp",
          "type": "uint256"
        }
      ],
      "name": "FundsDeposited",
      "type": "event"
    },
    {
      "anonymous": false,
      "inputs": [
        {
          "indexed": true,
          "internalType": "string",
          "name": "contractId",
          "type": "string"
        },
        {
          "indexed": true,
          "internalType": "address",
          "name": "admin",
          "type": "address"
        },
        {
          "indexed": false,
          "internalType": "uint256",
          "name": "amount",
          "type": "uint256"
        },
        {
          "indexed": false,
          "internalType": "uint256",
          "name": "timestamp",
          "type": "uint256"
        }
      ],
      "name": "FundsRefundedToBuyer",
      "type": "event"
    },
    {
      "anonymous": false,
      "inputs": [
        {
          "indexed": true,
          "internalType": "string",
          "name": "contractId",
          "type": "string"
        },
        {
          "indexed": true,
          "internalType": "address",
          "name": "admin",
          "type": "address"
        },
        {
          "indexed": true,
          "internalType": "address",
          "name": "recipient",
          "type": "address"
        },
        {
          "indexed": false,
          "internalType": "uint256",
          "name": "amount",
          "type": "uint256"
        },
        {
          "indexed": false,
          "internalType": "uint256",
          "name": "timestamp",
          "type": "uint256"
        }
      ],
      "name": "FundsReleasedByAdmin",
      "type": "event"
    },
    {
      "anonymous": false,
      "inputs": [
        {
          "indexed": true,
          "internalType": "string",
          "name": "contractId",
          "type": "string"
        },
        {
          "indexed": true,
          "internalType": "address",
          "name": "buyer",
          "type": "address"
        },
        {
          "indexed": false,
          "internalType": "uint256",
          "name": "amount",
          "type": "uint256"
        },
        {
          "indexed": false,
          "internalType": "uint256",
          "name": "timestamp",
          "type": "uint256"
        }
      ],
      "name": "FundsReleasedToSeller",
      "type": "event"
    },
    {
      "inputs": [],
      "name": "administrator",
      "outputs": [
        {
          "internalType": "address",
          "name": "",
          "type": "address"
        }
      ],
      "stateMutability": "view",
      "type": "function"
    },
    {
      "inputs": [
        {
          "internalType": "string",
          "name": "",
          "type": "string"
        }
      ],
      "name": "contracts",
      "outputs": [
        {
          "internalType": "address",
          "name": "buyer",
          "type": "address"
        },
        {
          "internalType": "address payable",
          "name": "seller",
          "type": "address"
        },
        {
          "internalType": "uint256",
          "name": "contractAmount",
          "type": "uint256"
        },
        {
          "internalType": "uint256",
          "name": "startDate",
          "type": "uint256"
        },
        {
          "internalType": "uint256",
          "name": "endDate",
          "type": "uint256"
        },
        {
          "internalType": "string",
          "name": "contractDescription",
          "type": "string"
        },
        {
          "internalType": "enum EscrowManager.State",
          "name": "currentState",
          "type": "uint8"
        },
        {
          "internalType": "bool",
          "name": "exists",
          "type": "bool"
        }
      ],
      "stateMutability": "view",
      "type": "function"
    },
    {
      "inputs": [
        {
          "internalType": "string",
          "name": "contractId",
          "type": "string"
        },
        {
          "internalType": "address",
          "name": "_buyer",
          "type": "address"
        },
        {
          "internalType": "address payable",
          "name": "_seller",
          "type": "address"
        },
        {
          "internalType": "uint256",
          "name": "_endDate",
          "type": "uint256"
        },
        {
          "internalType": "string",
          "name": "_description",
          "type": "string"
        }
      ],
      "name": "createEscrow",
      "outputs": [],
      "stateMutability": "nonpayable",
      "type": "function"
    },
    {
      "inputs": [
        {
          "internalType": "string",
          "name": "contractId",
          "type": "string"
        }
      ],
      "name": "deposit",
      "outputs": [],
      "stateMutability": "payable",
      "type": "function"
    },
    {
      "inputs": [
        {
          "internalType": "string",
          "name": "contractId",
          "type": "string"
        }
      ],
      "name": "doesContractExist",
      "outputs": [
        {
          "internalType": "bool",
          "name": "",
          "type": "bool"
        }
      ],
      "stateMutability": "view",
      "type": "function"
    },
    {
      "inputs": [
        {
          "internalType": "string",
          "name": "contractId",
          "type": "string"
        }
      ],
      "name": "getBalance",
      "outputs": [
        {
          "internalType": "uint256",
          "name": "",
          "type": "uint256"
        }
      ],
      "stateMutability": "view",
      "type": "function"
    },
    {
      "inputs": [
        {
          "internalType": "string",
          "name": "contractId",
          "type": "string"
        }
      ],
      "name": "getContractInfo",
      "outputs": [
        {
          "internalType": "address",
          "name": "_buyer",
          "type": "address"
        },
        {
          "internalType": "address",
          "name": "_seller",
          "type": "address"
        },
        {
          "internalType": "address",
          "name": "_administrator",
          "type": "address"
        },
        {
          "internalType": "uint256",
          "name": "_contractAmount",
          "type": "uint256"
        },
        {
          "internalType": "uint256",
          "name": "_startDate",
          "type": "uint256"
        },
        {
          "internalType": "uint256",
          "name": "_endDate",
          "type": "uint256"
        },
        {
          "internalType": "string",
          "name": "_description",
          "type": "string"
        },
        {
          "internalType": "enum EscrowManager.State",
          "name": "_currentState",
          "type": "uint8"
        },
        {
          "internalType": "bool",
          "name": "_isExpired",
          "type": "bool"
        }
      ],
      "stateMutability": "view",
      "type": "function"
    },
    {
      "inputs": [
        {
          "internalType": "string",
          "name": "contractId",
          "type": "string"
        }
      ],
      "name": "getRemainingTime",
      "outputs": [
        {
          "internalType": "uint256",
          "name": "",
          "type": "uint256"
        }
      ],
      "stateMutability": "view",
      "type": "function"
    },
    {
      "inputs": [
        {
          "internalType": "string",
          "name": "contractId",
          "type": "string"
        }
      ],
      "name": "isContractExpired",
      "outputs": [
        {
          "internalType": "bool",
          "name": "",
          "type": "bool"
        }
      ],
      "stateMutability": "view",
      "type": "function"
    },
    {
      "inputs": [
        {
          "internalType": "string",
          "name": "contractId",
          "type": "string"
        }
      ],
      "name": "refundToBuyer",
      "outputs": [],
      "stateMutability": "nonpayable",
      "type": "function"
    },
    {
      "inputs": [
        {
          "internalType": "string",
          "name": "contractId",
          "type": "string"
        }
      ],
      "name": "releaseFunds",
      "outputs": [],
      "stateMutability": "nonpayable",
      "type": "function"
    },
    {
      "inputs": [
        {
          "internalType": "string",
          "name": "contractId",
          "type": "string"
        }
      ],
      "name": "releaseToSeller",
      "outputs": [],
      "stateMutability": "nonpayable",
      "type": "function"
    },
    {
      "inputs": [
        {
          "internalType": "string",
          "name": "contractId",
          "type": "string"
        },
        {
          "internalType": "bool",
          "name": "favorBuyer",
          "type": "bool"
        }
      ],
      "name": "resolveDispute",
      "outputs": [],
      "stateMutability": "nonpayable",
      "type": "function"
    },
    {
      "inputs": [
        {
          "internalType": "string",
          "name": "contractId",
          "type": "string"
        }
      ],
      "name": "setDisputed",
      "outputs": [],
      "stateMutability": "nonpayable",
      "type": "function"
    },
    {
      "inputs": [
        {
          "internalType": "address",
          "name": "newAdmin",
          "type": "address"
        }
      ],
      "name": "transferAdmin",
      "outputs": [],
      "stateMutability": "nonpayable",
      "type": "function"
    }
  ],
  "bytecode": "0x608060405234801561001057600080fd5b50600080546001600160a01b0319163317905561206d806100326000396000f3fe6080604052600436106100e85760003560e01c8063819f34b31161008a578063c3abd8b311610059578063c3abd8b31461028e578063ce422626146102ae578063d6aa54df146102ce578063f53d0a8e146102ee57600080fd5b8063819f34b3146101f25780638c5b8385146102275780639d3572201461025b578063a26e11861461027b57600080fd5b80633a51d246116100c65780633a51d246146101645780634304479e146101925780636ab6f6fe146101b257806375829def146101d257600080fd5b80630df205f0146100ed5780631b2a26ca146101225780633861628714610144575b600080fd5b3480156100f957600080fd5b5061010d610108366004611a8d565b610326565b60405190151581526020015b60405180910390f35b34801561012e57600080fd5b5061014261013d366004611a8d565b61035a565b005b34801561015057600080fd5b5061010d61015f366004611a8d565b6105d2565b34801561017057600080fd5b5061018461017f366004611a8d565b61064a565b604051908152602001610119565b34801561019e57600080fd5b506101426101ad366004611ae2565b6106bf565b3480156101be57600080fd5b506101426101cd366004611a8d565b6109f8565b3480156101de57600080fd5b506101426101ed366004611b79565b610b4d565b3480156101fe57600080fd5b5061021261020d366004611a8d565b610bf9565b60405161011999989796959493929190611c1e565b34801561023357600080fd5b50610247610242366004611a8d565b610dfd565b604051610119989796959493929190611c8f565b34801561026757600080fd5b50610184610276366004611a8d565b610eeb565b610142610289366004611a8d565b610f9b565b34801561029a57600080fd5b506101426102a9366004611a8d565b6111eb565b3480156102ba57600080fd5b506101426102c9366004611cf6565b611430565b3480156102da57600080fd5b506101426102e9366004611a8d565b611789565b3480156102fa57600080fd5b5060005461030e906001600160a01b031681565b6040516001600160a01b039091168152602001610119565b60006001826040516103389190611d4d565b9081526040519081900360200190206006015460ff6101009091041692915050565b6000546001600160a01b0316331461038d5760405162461bcd60e51b815260040161038490611d69565b60405180910390fd5b8060018160405161039e9190611d4d565b9081526040519081900360200190206006015460ff610100909104166103d65760405162461bcd60e51b815260040161038490611dba565b816001806001836040516103ea9190611d4d565b9081526040519081900360200190206006015460ff16600381111561041157610411611be6565b1461042e5760405162461bcd60e51b815260040161038490611de9565b60006001856040516104409190611d4d565b9081526020016040518091039020600201549050600081116104a45760405162461bcd60e51b815260206004820152601d60248201527f4e6f2068617920666f6e646f732070617261207265656d626f6c7361720000006044820152606401610384565b60026001866040516104b69190611d4d565b908152604051908190036020019020600601805460ff191660018360038111156104e2576104e2611be6565b02179055506001856040516104f79190611d4d565b908152604051908190036020018120546001600160a01b03169082156108fc029083906000818181858888f19350505050158015610539573d6000803e3d6000fd5b50604051339061054a908790611d4d565b60408051918290038220848352426020840152917fb367fae55f35b8619cf335ee54496ea2e592cefbed1018216b5f5377e9cd272591015b60405180910390a3846040516105989190611d4d565b604051809103902060008051602061201883398151915260016002426040516105c393929190611e39565b60405180910390a25050505050565b6000816001816040516105e59190611d4d565b9081526040519081900360200190206006015460ff6101009091041661061d5760405162461bcd60e51b815260040161038490611dba565b60018360405161062d9190611d4d565b908152602001604051809103902060040154421191505b50919050565b60008160018160405161065d9190611d4d565b9081526040519081900360200190206006015460ff610100909104166106955760405162461bcd60e51b815260040161038490611dba565b6001836040516106a59190611d4d565b908152602001604051809103902060020154915050919050565b6000546001600160a01b031633146106e95760405162461bcd60e51b815260040161038490611d69565b6001856040516106f99190611d4d565b9081526040519081900360200190206006015460ff610100909104161561075a5760405162461bcd60e51b8152602060048201526015602482015274456c20636f6e747261746f2079612065786973746560581b6044820152606401610384565b6001600160a01b0384166107b05760405162461bcd60e51b815260206004820152601860248201527f446972656363696f6e20627579657220696e76616c69646100000000000000006044820152606401610384565b6001600160a01b0383166108065760405162461bcd60e51b815260206004820152601960248201527f446972656363696f6e2073656c6c657220696e76616c696461000000000000006044820152606401610384565b4282116108665760405162461bcd60e51b815260206004820152602860248201527f4c612066656368612064652066696e616c697a6163696f6e2064656265207365604482015267722066757475726160c01b6064820152608401610384565b604051806101000160405280856001600160a01b03168152602001846001600160a01b031681526020016000815260200160008152602001838152602001828152602001600060038111156108bd576108bd611be6565b8152600160209091018190526040516108d7908890611d4d565b9081526040805160209281900383019020835181546001600160a01b03199081166001600160a01b03928316178355938501516001830180549095169116179092558201516002820155606082015160038201556080820151600482015560a082015160058201906109499082611ee7565b5060c082015160068201805460ff1916600183600381111561096d5761096d611be6565b021790555060e08201518160060160016101000a81548160ff021916908315150217905550905050826001600160a01b0316846001600160a01b0316866040516109b79190611d4d565b604051908190038120858252907fc49b1e33430b28473b5134a8ca461b5d56386c4c7a48aa5cc7c618113ca735899060200160405180910390a45050505050565b6000546001600160a01b03163314610a225760405162461bcd60e51b815260040161038490611d69565b80600181604051610a339190611d4d565b9081526040519081900360200190206006015460ff61010090910416610a6b5760405162461bcd60e51b815260040161038490611dba565b81600180600183604051610a7f9190611d4d565b9081526040519081900360200190206006015460ff166003811115610aa657610aa6611be6565b14610ac35760405162461bcd60e51b815260040161038490611de9565b6003600185604051610ad59190611d4d565b908152604051908190036020019020600601805460ff19166001836003811115610b0157610b01611be6565b021790555083604051610b149190611d4d565b60405180910390206000805160206120188339815191526001600342604051610b3f93929190611e39565b60405180910390a250505050565b6000546001600160a01b03163314610b775760405162461bcd60e51b815260040161038490611d69565b6001600160a01b038116610bd75760405162461bcd60e51b815260206004820152602160248201527f4e7565766120646972656363696f6e2064652061646d696e20696e76616c69646044820152606160f81b6064820152608401610384565b600080546001600160a01b0319166001600160a01b0392909216919091179055565b600080600080600080606060008089600181604051610c189190611d4d565b9081526040519081900360200190206006015460ff61010090910416610c505760405162461bcd60e51b815260040161038490611dba565b600060018c604051610c629190611d4d565b9081526040805191829003602090810183206101008401835280546001600160a01b03908116855260018201541691840191909152600281015491830191909152600381015460608301526004810154608083015260058101805460a084019190610ccc90611e62565b80601f0160208091040260200160405190810160405280929190818152602001828054610cf890611e62565b8015610d455780601f10610d1a57610100808354040283529160200191610d45565b820191906000526020600020905b815481529060010190602001808311610d2857829003601f168201915b5050509183525050600682015460209091019060ff166003811115610d6c57610d6c611be6565b6003811115610d7d57610d7d611be6565b81526020016006820160019054906101000a900460ff16151515158152505090508060000151816020015160008054906101000a90046001600160a01b03168360400151846060015185608001518660a001518760c00151886080015142119a509a509a509a509a509a509a509a509a5050509193959799909294969850565b8051602081830181018051600180835293830192909401919091209290528154908201546002830154600384015460048501546005860180546001600160a01b03968716979690951695939492939192610e5690611e62565b80601f0160208091040260200160405190810160405280929190818152602001828054610e8290611e62565b8015610ecf5780601f10610ea457610100808354040283529160200191610ecf565b820191906000526020600020905b815481529060010190602001808311610eb257829003601f168201915b5050506006909301549192505060ff8082169161010090041688565b600081600181604051610efe9190611d4d565b9081526040519081900360200190206006015460ff61010090910416610f365760405162461bcd60e51b815260040161038490611dba565b600183604051610f469190611d4d565b9081526020016040518091039020600401544210610f675760009150610644565b42600184604051610f789190611d4d565b908152602001604051809103902060040154610f949190611fa7565b9392505050565b80600181604051610fac9190611d4d565b9081526040519081900360200190206006015460ff61010090910416610fe45760405162461bcd60e51b815260040161038490611dba565b600181604051610ff49190611d4d565b90815260405190819003602001902054336001600160a01b039091161461102d5760405162461bcd60e51b815260040161038490611fce565b816000806001836040516110419190611d4d565b9081526040519081900360200190206006015460ff16600381111561106857611068611be6565b146110855760405162461bcd60e51b815260040161038490611de9565b600034116110d55760405162461bcd60e51b815260206004820152601b60248201527f456c206d6f6e746f206465626520736572206d61796f722061203000000000006044820152606401610384565b346001856040516110e69190611d4d565b9081526020016040518091039020600201819055504260018560405161110c9190611d4d565b908152602001604051809103902060030181905550600180856040516111329190611d4d565b908152604051908190036020019020600601805460ff1916600183600381111561115e5761115e611be6565b02179055506040513390611173908690611d4d565b60408051918290038220348352426020840152917fdf891f5410135263075ea37fdff545d69408e487f2cac5ef532f801aecfaf19e910160405180910390a3836040516111c09190611d4d565b60405180910390206000805160206120188339815191526000600142604051610b3f93929190611e39565b806001816040516111fc9190611d4d565b9081526040519081900360200190206006015460ff610100909104166112345760405162461bcd60e51b815260040161038490611dba565b6001816040516112449190611d4d565b90815260405190819003602001902054336001600160a01b039091161461127d5760405162461bcd60e51b815260040161038490611fce565b816001806001836040516112919190611d4d565b9081526040519081900360200190206006015460ff1660038111156112b8576112b8611be6565b146112d55760405162461bcd60e51b815260040161038490611de9565b60006001856040516112e79190611d4d565b90815260200160405180910390206002015490506000811161134b5760405162461bcd60e51b815260206004820152601a60248201527f4e6f2068617920666f6e646f732070617261206c6962657261720000000000006044820152606401610384565b600260018660405161135d9190611d4d565b908152604051908190036020019020600601805460ff1916600183600381111561138957611389611be6565b021790555060018560405161139e9190611d4d565b908152604051908190036020018120600101546001600160a01b03169082156108fc029083906000818181858888f193505050501580156113e3573d6000803e3d6000fd5b5060405133906113f4908790611d4d565b60408051918290038220848352426020840152917fa7e1b705062792f3545da9c94c0fe07e82fc254b5d32722642263a18584882a89101610582565b6000546001600160a01b0316331461145a5760405162461bcd60e51b815260040161038490611d69565b8160018160405161146b9190611d4d565b9081526040519081900360200190206006015460ff610100909104166114a35760405162461bcd60e51b815260040161038490611dba565b826003806001836040516114b79190611d4d565b9081526040519081900360200190206006015460ff1660038111156114de576114de611be6565b146114fb5760405162461bcd60e51b815260040161038490611de9565b600060018660405161150d9190611d4d565b9081526020016040518091039020600201549050600081116115805760405162461bcd60e51b815260206004820152602660248201527f4e6f2068617920666f6e646f732070617261207265736f6c766572206c61206460448201526569737075746160d01b6064820152608401610384565b60026001876040516115929190611d4d565b908152604051908190036020019020600601805460ff191660018360038111156115be576115be611be6565b02179055508415611670576001866040516115d99190611d4d565b908152604051908190036020018120546001600160a01b03169082156108fc029083906000818181858888f1935050505015801561161b573d6000803e3d6000fd5b50604051339061162c908890611d4d565b60408051918290038220848352426020840152917fb367fae55f35b8619cf335ee54496ea2e592cefbed1018216b5f5377e9cd2725910160405180910390a3611740565b6001866040516116809190611d4d565b908152604051908190036020018120600101546001600160a01b03169082156108fc029083906000818181858888f193505050501580156116c5573d6000803e3d6000fd5b506001866040516116d69190611d4d565b908152604051908190036020018120600101546001600160a01b0316903390611700908990611d4d565b60408051918290038220858352426020840152917f85e7e583035e6dde8b85b69a1bc341bd3301e78aadd6bc20627375a651a448b4910160405180910390a45b8560405161174e9190611d4d565b6040518091039020600080516020612018833981519152600360024260405161177993929190611e39565b60405180910390a2505050505050565b6000546001600160a01b031633146117b35760405162461bcd60e51b815260040161038490611d69565b806001816040516117c49190611d4d565b9081526040519081900360200190206006015460ff610100909104166117fc5760405162461bcd60e51b815260040161038490611dba565b816001806001836040516118109190611d4d565b9081526040519081900360200190206006015460ff16600381111561183757611837611be6565b146118545760405162461bcd60e51b815260040161038490611de9565b60006001856040516118669190611d4d565b9081526020016040518091039020600201549050600081116118ca5760405162461bcd60e51b815260206004820152601a60248201527f4e6f2068617920666f6e646f732070617261206c6962657261720000000000006044820152606401610384565b60026001866040516118dc9190611d4d565b908152604051908190036020019020600601805460ff1916600183600381111561190857611908611be6565b021790555060018560405161191d9190611d4d565b908152604051908190036020018120600101546001600160a01b03169082156108fc029083906000818181858888f19350505050158015611962573d6000803e3d6000fd5b506001856040516119739190611d4d565b908152604051908190036020018120600101546001600160a01b031690339061199d908890611d4d565b60408051918290038220858352426020840152917f85e7e583035e6dde8b85b69a1bc341bd3301e78aadd6bc20627375a651a448b4910160405180910390a4846040516105989190611d4d565b634e487b7160e01b600052604160045260246000fd5b600082601f830112611a1157600080fd5b813567ffffffffffffffff80821115611a2c57611a2c6119ea565b604051601f8301601f19908116603f01168101908282118183101715611a5457611a546119ea565b81604052838152866020858801011115611a6d57600080fd5b836020870160208301376000602085830101528094505050505092915050565b600060208284031215611a9f57600080fd5b813567ffffffffffffffff811115611ab657600080fd5b611ac284828501611a00565b949350505050565b6001600160a01b0381168114611adf57600080fd5b50565b600080600080600060a08688031215611afa57600080fd5b853567ffffffffffffffff80821115611b1257600080fd5b611b1e89838a01611a00565b965060208801359150611b3082611aca565b909450604087013590611b4282611aca565b9093506060870135925060808701359080821115611b5f57600080fd5b50611b6c88828901611a00565b9150509295509295909350565b600060208284031215611b8b57600080fd5b8135610f9481611aca565b60005b83811015611bb1578181015183820152602001611b99565b50506000910152565b60008151808452611bd2816020860160208601611b96565b601f01601f19169290920160200192915050565b634e487b7160e01b600052602160045260246000fd5b60048110611c1a57634e487b7160e01b600052602160045260246000fd5b9052565b6001600160a01b038a81168252898116602083015288166040820152606081018790526080810186905260a0810185905261012060c08201819052600090611c6883820187611bba565b915050611c7860e0830185611bfc565b8215156101008301529a9950505050505050505050565b6001600160a01b0389811682528816602082015260408101879052606081018690526080810185905261010060a08201819052600090611cd183820187611bba565b915050611ce160c0830185611bfc565b82151560e08301529998505050505050505050565b60008060408385031215611d0957600080fd5b823567ffffffffffffffff811115611d2057600080fd5b611d2c85828601611a00565b92505060208301358015158114611d4257600080fd5b809150509250929050565b60008251611d5f818460208701611b96565b9190910192915050565b60208082526031908201527f536f6c6f20656c2061646d696e6973747261646f7220707565646520656a65636040820152703aba30b91032b9ba3090333ab731b4b7b760791b606082015260800190565b602080825260159082015274456c20636f6e747261746f206e6f2065786973746560581b604082015260600190565b60208082526030908201527f45737461646f2064656c20636f6e747261746f20696e76616c69646f2070617260408201526f309032b9ba309037b832b930b1b4b7b760811b606082015260800190565b60608101611e478286611bfc565b611e546020830185611bfc565b826040830152949350505050565b600181811c90821680611e7657607f821691505b60208210810361064457634e487b7160e01b600052602260045260246000fd5b601f821115611ee2576000816000526020600020601f850160051c81016020861015611ebf5750805b601f850160051c820191505b81811015611ede57828155600101611ecb565b5050505b505050565b815167ffffffffffffffff811115611f0157611f016119ea565b611f1581611f0f8454611e62565b84611e96565b602080601f831160018114611f4a5760008415611f325750858301515b600019600386901b1c1916600185901b178555611ede565b600085815260208120601f198616915b82811015611f7957888601518255948401946001909101908401611f5a565b5085821015611f975787850151600019600388901b60f8161c191681555b5050505050600190811b01905550565b81810381811115611fc857634e487b7160e01b600052601160045260246000fd5b92915050565b60208082526029908201527f536f6c6f20656c20627579657220707565646520656a656375746172206573746040820152683090333ab731b4b7b760b91b60608201526080019056fe97c7c1920f4e6b379ca6b118e2a6d2abce92bf36bbcb293cf85d9d91175c7539a26469706673582212200047faf46110635a2e87f698c5dbe39409bf21dd6c3d7fa21a0d9b6a0e05630f64736f6c63430008180033",
  "linkReferences": {},
  "deployedLinkReferences": {}
}