{
  "_format": "hh-sol-artifact-1",
  "contractName": "Escrow",
  "sourceName": "blockchain/contracts/Escrow.sol",
  "abi": [
    {
      "inputs": [
        {
          "internalType": "address",
          "name": "_buyer",
          "type": "address"
        },
        {
          "internalType": "address payable",
          "name": "_seller",
          "type": "address"
        },
        {
          "internalType": "uint256",
          "name": "_endDate",
          "type": "uint256"
        },
        {
          "internalType": "string",
          "name": "_description",
          "type": "string"
        }
      ],
      "stateMutability": "nonpayable",
      "type": "constructor"
    },
    {
      "anonymous": false,
      "inputs": [
        {
          "indexed": false,
          "internalType": "enum Escrow.State",
          "name": "previousState",
          "type": "uint8"
        },
        {
          "indexed": false,
          "internalType": "enum Escrow.State",
          "name": "newState",
          "type": "uint8"
        },
        {
          "indexed": false,
          "internalType": "uint256",
          "name": "timestamp",
          "type": "uint256"
        }
      ],
      "name": "ContractStateChanged",
      "type": "event"
    },
    {
      "anonymous": false,
      "inputs": [
        {
          "indexed": true,
          "internalType": "address",
          "name": "buyer",
          "type": "address"
        },
        {
          "indexed": false,
          "internalType": "uint256",
          "name": "amount",
          "type": "uint256"
        },
        {
          "indexed": false,
          "internalType": "uint256",
          "name": "timestamp",
          "type": "uint256"
        }
      ],
      "name": "FundsDeposited",
      "type": "event"
    },
    {
      "anonymous": false,
      "inputs": [
        {
          "indexed": true,
          "internalType": "address",
          "name": "admin",
          "type": "address"
        },
        {
          "indexed": false,
          "internalType": "uint256",
          "name": "amount",
          "type": "uint256"
        },
        {
          "indexed": false,
          "internalType": "uint256",
          "name": "timestamp",
          "type": "uint256"
        }
      ],
      "name": "FundsRefundedToBuyer",
      "type": "event"
    },
    {
      "anonymous": false,
      "inputs": [
        {
          "indexed": true,
          "internalType": "address",
          "name": "admin",
          "type": "address"
        },
        {
          "indexed": true,
          "internalType": "address",
          "name": "recipient",
          "type": "address"
        },
        {
          "indexed": false,
          "internalType": "uint256",
          "name": "amount",
          "type": "uint256"
        },
        {
          "indexed": false,
          "internalType": "uint256",
          "name": "timestamp",
          "type": "uint256"
        }
      ],
      "name": "FundsReleasedByAdmin",
      "type": "event"
    },
    {
      "anonymous": false,
      "inputs": [
        {
          "indexed": true,
          "internalType": "address",
          "name": "buyer",
          "type": "address"
        },
        {
          "indexed": false,
          "internalType": "uint256",
          "name": "amount",
          "type": "uint256"
        },
        {
          "indexed": false,
          "internalType": "uint256",
          "name": "timestamp",
          "type": "uint256"
        }
      ],
      "name": "FundsReleasedToSeller",
      "type": "event"
    },
    {
      "inputs": [],
      "name": "administrator",
      "outputs": [
        {
          "internalType": "address",
          "name": "",
          "type": "address"
        }
      ],
      "stateMutability": "view",
      "type": "function"
    },
    {
      "inputs": [],
      "name": "buyer",
      "outputs": [
        {
          "internalType": "address",
          "name": "",
          "type": "address"
        }
      ],
      "stateMutability": "view",
      "type": "function"
    },
    {
      "inputs": [],
      "name": "contractAmount",
      "outputs": [
        {
          "internalType": "uint256",
          "name": "",
          "type": "uint256"
        }
      ],
      "stateMutability": "view",
      "type": "function"
    },
    {
      "inputs": [],
      "name": "contractDescription",
      "outputs": [
        {
          "internalType": "string",
          "name": "",
          "type": "string"
        }
      ],
      "stateMutability": "view",
      "type": "function"
    },
    {
      "inputs": [],
      "name": "currentState",
      "outputs": [
        {
          "internalType": "enum Escrow.State",
          "name": "",
          "type": "uint8"
        }
      ],
      "stateMutability": "view",
      "type": "function"
    },
    {
      "inputs": [],
      "name": "deposit",
      "outputs": [],
      "stateMutability": "payable",
      "type": "function"
    },
    {
      "inputs": [],
      "name": "endDate",
      "outputs": [
        {
          "internalType": "uint256",
          "name": "",
          "type": "uint256"
        }
      ],
      "stateMutability": "view",
      "type": "function"
    },
    {
      "inputs": [],
      "name": "getBalance",
      "outputs": [
        {
          "internalType": "uint256",
          "name": "",
          "type": "uint256"
        }
      ],
      "stateMutability": "view",
      "type": "function"
    },
    {
      "inputs": [],
      "name": "getContractInfo",
      "outputs": [
        {
          "internalType": "address",
          "name": "_buyer",
          "type": "address"
        },
        {
          "internalType": "address",
          "name": "_seller",
          "type": "address"
        },
        {
          "internalType": "address",
          "name": "_administrator",
          "type": "address"
        },
        {
          "internalType": "uint256",
          "name": "_contractAmount",
          "type": "uint256"
        },
        {
          "internalType": "uint256",
          "name": "_currentBalance",
          "type": "uint256"
        },
        {
          "internalType": "uint256",
          "name": "_startDate",
          "type": "uint256"
        },
        {
          "internalType": "uint256",
          "name": "_endDate",
          "type": "uint256"
        },
        {
          "internalType": "string",
          "name": "_description",
          "type": "string"
        },
        {
          "internalType": "enum Escrow.State",
          "name": "_currentState",
          "type": "uint8"
        },
        {
          "internalType": "bool",
          "name": "_isExpired",
          "type": "bool"
        }
      ],
      "stateMutability": "view",
      "type": "function"
    },
    {
      "inputs": [],
      "name": "getRemainingTime",
      "outputs": [
        {
          "internalType": "uint256",
          "name": "",
          "type": "uint256"
        }
      ],
      "stateMutability": "view",
      "type": "function"
    },
    {
      "inputs": [],
      "name": "isContractExpired",
      "outputs": [
        {
          "internalType": "bool",
          "name": "",
          "type": "bool"
        }
      ],
      "stateMutability": "view",
      "type": "function"
    },
    {
      "inputs": [],
      "name": "refundToBuyer",
      "outputs": [],
      "stateMutability": "nonpayable",
      "type": "function"
    },
    {
      "inputs": [],
      "name": "releaseFunds",
      "outputs": [],
      "stateMutability": "nonpayable",
      "type": "function"
    },
    {
      "inputs": [],
      "name": "releaseToSeller",
      "outputs": [],
      "stateMutability": "nonpayable",
      "type": "function"
    },
    {
      "inputs": [
        {
          "internalType": "bool",
          "name": "favorBuyer",
          "type": "bool"
        }
      ],
      "name": "resolveDispute",
      "outputs": [],
      "stateMutability": "nonpayable",
      "type": "function"
    },
    {
      "inputs": [],
      "name": "seller",
      "outputs": [
        {
          "internalType": "address payable",
          "name": "",
          "type": "address"
        }
      ],
      "stateMutability": "view",
      "type": "function"
    },
    {
      "inputs": [],
      "name": "setDisputed",
      "outputs": [],
      "stateMutability": "nonpayable",
      "type": "function"
    },
    {
      "inputs": [],
      "name": "startDate",
      "outputs": [
        {
          "internalType": "uint256",
          "name": "",
          "type": "uint256"
        }
      ],
      "stateMutability": "view",
      "type": "function"
    }
  ],
  "bytecode": "0x60806040523480156200001157600080fd5b50604051620013fe380380620013fe8339810160408190526200003491620001ea565b6001600160a01b038416620000905760405162461bcd60e51b815260206004820152601860248201527f446972656363696f6e20627579657220696e76616c696461000000000000000060448201526064015b60405180910390fd5b6001600160a01b038316620000e85760405162461bcd60e51b815260206004820152601960248201527f446972656363696f6e2073656c6c657220696e76616c69646100000000000000604482015260640162000087565b4282116200014a5760405162461bcd60e51b815260206004820152602860248201527f4c612066656368612064652066696e616c697a6163696f6e2064656265207365604482015267722066757475726160c01b606482015260840162000087565b600080546001600160a01b0380871661010002610100600160a81b031990921691909117909155600180549185166001600160a01b0319928316179055600280549091163317905560058290556006620001a5828262000385565b50506000805460ff191690555062000451915050565b6001600160a01b0381168114620001d157600080fd5b50565b634e487b7160e01b600052604160045260246000fd5b600080600080608085870312156200020157600080fd5b84516200020e81620001bb565b809450506020808601516200022381620001bb565b6040870151606088015191955093506001600160401b03808211156200024857600080fd5b818801915088601f8301126200025d57600080fd5b815181811115620002725762000272620001d4565b604051601f8201601f19908116603f011681019083821181831017156200029d576200029d620001d4565b816040528281528b86848701011115620002b657600080fd5b600093505b82841015620002da5784840186015181850187015292850192620002bb565b600086848301015280965050505050505092959194509250565b600181811c908216806200030957607f821691505b6020821081036200032a57634e487b7160e01b600052602260045260246000fd5b50919050565b601f82111562000380576000816000526020600020601f850160051c810160208610156200035b5750805b601f850160051c820191505b818110156200037c5782815560010162000367565b5050505b505050565b81516001600160401b03811115620003a157620003a1620001d4565b620003b981620003b28454620002f4565b8462000330565b602080601f831160018114620003f15760008415620003d85750858301515b600019600386901b1c1916600185901b1785556200037c565b600085815260208120601f198616915b82811015620004225788860151825594840194600190910190840162000401565b5085821015620004415787850151600019600388901b60f8161c191681555b5050505050600190811b01905550565b610f9d80620004616000396000f3fe6080604052600436106101095760003560e01c8063872db88911610095578063c24a0f8b11610064578063c24a0f8b146102a7578063d0e30db0146102bd578063ea8b5ca3146102c5578063efb98bcf146102e7578063f53d0a8e146102fc57600080fd5b8063872db8891461023b578063892a0e421461025d57806389e1e82a14610272578063a921a5b01461029257600080fd5b80634bd7d081116100dc5780634bd7d081146101a9578063565a57ca146101c057806369d89575146101d65780637150d8ae146101eb5780637cc1f8671461021057600080fd5b806308551a531461010e5780630b97bc861461014b5780630c3f6acf1461016f57806312065fe014610196575b600080fd5b34801561011a57600080fd5b5060015461012e906001600160a01b031681565b6040516001600160a01b0390911681526020015b60405180910390f35b34801561015757600080fd5b5061016160045481565b604051908152602001610142565b34801561017b57600080fd5b506000546101899060ff1681565b6040516101429190610cce565b3480156101a257600080fd5b5047610161565b3480156101b557600080fd5b506101be61031c565b005b3480156101cc57600080fd5b5061016160035481565b3480156101e257600080fd5b506101be610488565b3480156101f757600080fd5b5060005461012e9061010090046001600160a01b031681565b34801561021c57600080fd5b506102256105b9565b6040516101429a99989796959493929190610d28565b34801561024757600080fd5b506102506106b4565b6040516101429190610d9d565b34801561026957600080fd5b506101be610742565b34801561027e57600080fd5b506101be61028d366004610db7565b6108a3565b34801561029e57600080fd5b506101be610aa6565b3480156102b357600080fd5b5061016160055481565b6101be610b44565b3480156102d157600080fd5b5060055442116040519015158152602001610142565b3480156102f357600080fd5b50610161610c72565b34801561030857600080fd5b5060025461012e906001600160a01b031681565b6002546001600160a01b0316331461034f5760405162461bcd60e51b815260040161034690610dd9565b60405180910390fd5b60018060005460ff16600381111561036957610369610c96565b146103865760405162461bcd60e51b815260040161034690610e2a565b47806103d45760405162461bcd60e51b815260206004820152601d60248201527f4e6f2068617920666f6e646f732070617261207265656d626f6c7361720000006044820152606401610346565b60008054600260ff19909116178082556040516101009091046001600160a01b0316916108fc841502918491818181858888f1935050505015801561041d573d6000803e3d6000fd5b506040805182815242602082015233917f36808e51aafdf5cd70b791e41acc72683f19ba30868b29d343d4e79b8227e77191015b60405180910390a2600080516020610f48833981519152600160024260405161047c93929190610e7a565b60405180910390a15050565b60005461010090046001600160a01b031633146104b75760405162461bcd60e51b815260040161034690610ea3565b60018060005460ff1660038111156104d1576104d1610c96565b146104ee5760405162461bcd60e51b815260040161034690610e2a565b478061053c5760405162461bcd60e51b815260206004820152601a60248201527f4e6f2068617920666f6e646f732070617261206c6962657261720000000000006044820152606401610346565b6000805460ff191660021781556001546040516001600160a01b03909116916108fc841502918491818181858888f19350505050158015610581573d6000803e3d6000fd5b506040805182815242602082015233917f7d35c4b8ee60445e972b1ceadf6e20825d47fd3ae52da521fa480251aa7b389c9101610451565b6000805460015460025460035460045460055460068054889788978897889788978897606097899788976001600160a01b036101008204811698811697169594479490939092909160ff169042841090839061061490610eec565b80601f016020809104026020016040519081016040528092919081815260200182805461064090610eec565b801561068d5780601f106106625761010080835404028352916020019161068d565b820191906000526020600020905b81548152906001019060200180831161067057829003601f168201915b50505050509250995099509950995099509950995099509950995090919293949596979899565b600680546106c190610eec565b80601f01602080910402602001604051908101604052809291908181526020018280546106ed90610eec565b801561073a5780601f1061070f5761010080835404028352916020019161073a565b820191906000526020600020905b81548152906001019060200180831161071d57829003601f168201915b505050505081565b6002546001600160a01b0316331461076c5760405162461bcd60e51b815260040161034690610dd9565b60018060005460ff16600381111561078657610786610c96565b146107a35760405162461bcd60e51b815260040161034690610e2a565b47806107f15760405162461bcd60e51b815260206004820152601a60248201527f4e6f2068617920666f6e646f732070617261206c6962657261720000000000006044820152606401610346565b6000805460ff191660021781556001546040516001600160a01b03909116916108fc841502918491818181858888f19350505050158015610836573d6000803e3d6000fd5b50600154604080518381524260208201526001600160a01b039092169133917fc67bcbad90729fbb74a3c7a3cf92a6e1fa0558420097a0df42cdc32d443adb57910160405180910390a3600080516020610f48833981519152600160024260405161047c93929190610e7a565b6002546001600160a01b031633146108cd5760405162461bcd60e51b815260040161034690610dd9565b60038060005460ff1660038111156108e7576108e7610c96565b146109045760405162461bcd60e51b815260040161034690610e2a565b47806109615760405162461bcd60e51b815260206004820152602660248201527f4e6f2068617920666f6e646f732070617261207265736f6c766572206c61206460448201526569737075746160d01b6064820152608401610346565b6000805460ff1916600217905582156109f157600080546040516101009091046001600160a01b0316916108fc841502918491818181858888f193505050501580156109b1573d6000803e3d6000fd5b506040805182815242602082015233917f36808e51aafdf5cd70b791e41acc72683f19ba30868b29d343d4e79b8227e771910160405180910390a2610a76565b6001546040516001600160a01b039091169082156108fc029083906000818181858888f19350505050158015610a2b573d6000803e3d6000fd5b50600154604080518381524260208201526001600160a01b039092169133917fc67bcbad90729fbb74a3c7a3cf92a6e1fa0558420097a0df42cdc32d443adb57910160405180910390a35b600080516020610f488339815191526003600242604051610a9993929190610e7a565b60405180910390a1505050565b6002546001600160a01b03163314610ad05760405162461bcd60e51b815260040161034690610dd9565b60018060005460ff166003811115610aea57610aea610c96565b14610b075760405162461bcd60e51b815260040161034690610e2a565b6000805460ff19166003908117909155604051600080516020610f4883398151915291610b3991600191904290610e7a565b60405180910390a150565b60005461010090046001600160a01b03163314610b735760405162461bcd60e51b815260040161034690610ea3565b60008060005460ff166003811115610b8d57610b8d610c96565b14610baa5760405162461bcd60e51b815260040161034690610e2a565b60003411610bfa5760405162461bcd60e51b815260206004820152601b60248201527f456c206d6f6e746f206465626520736572206d61796f722061203000000000006044820152606401610346565b3460035542600455600080546001919060ff1916828002179055506040805134815242602082015233917fbee4fe3675934fca827426c793623996a3079255089bda3a717019ffc5db2765910160405180910390a2600080516020610f488339815191526000600142604051610b3993929190610e7a565b60006005544210610c835750600090565b42600554610c919190610f26565b905090565b634e487b7160e01b600052602160045260246000fd5b60048110610cca57634e487b7160e01b600052602160045260246000fd5b9052565b60208101610cdc8284610cac565b92915050565b6000815180845260005b81811015610d0857602081850181015186830182015201610cec565b506000602082860101526020601f19601f83011685010191505092915050565b600061014060018060a01b03808e168452808d166020850152808c166040850152508960608401528860808401528760a08401528660c08401528060e0840152610d7481840187610ce2565b915050610d85610100830185610cac565b8215156101208301529b9a5050505050505050505050565b602081526000610db06020830184610ce2565b9392505050565b600060208284031215610dc957600080fd5b81358015158114610db057600080fd5b60208082526031908201527f536f6c6f20656c2061646d696e6973747261646f7220707565646520656a65636040820152703aba30b91032b9ba3090333ab731b4b7b760791b606082015260800190565b60208082526030908201527f45737461646f2064656c20636f6e747261746f20696e76616c69646f2070617260408201526f309032b9ba309037b832b930b1b4b7b760811b606082015260800190565b60608101610e888286610cac565b610e956020830185610cac565b826040830152949350505050565b60208082526029908201527f536f6c6f20656c20627579657220707565646520656a656375746172206573746040820152683090333ab731b4b7b760b91b606082015260800190565b600181811c90821680610f0057607f821691505b602082108103610f2057634e487b7160e01b600052602260045260246000fd5b50919050565b81810381811115610cdc57634e487b7160e01b600052601160045260246000fdfefe2168277ecba2ac11b6b1d6827366a5a67203201edcbc6c06f39a58f9d89e63a26469706673582212202c12af825d5d8b04c7fa6f21a3c8f63ae082448a3849d5879bbedea6f40efcfe64736f6c63430008180033",
  "linkReferences": {},
  "deployedLinkReferences": {}
}